:020000040800F2
:10000000008000205121000837050008390500084C
:100010003B0500083D0500083F0500080000000002
:100020000000000000000000000000004105000882
:1000300043050008000000004505000847050008CA
:10004000A1210008A1210008A1210008A121000888
:10005000A1210008A1210008A1210008A121000878
:10006000A1210008A1210008A1210008A121000868
:10007000A1210008A1210008A1210008A121000858
:10008000A121000800000000A1210008A121000812
:10009000A1210008A1210008A1210008A121000838
:1000A000A1210008A1210008A1210008A121000828
:1000B00051050008A1210008A1210008A121000884
:1000C000A1210008A1210008A1210008A121000808
:1000D000A1210008A1210008A1210008A1210008F8
:1000E000A1210008A1210008A1210008A1210008E8
:1000F000A1210008A1210008A121000800000000A2
:1001000000000000A121000800000000A12100085B
:10011000A121000800000000A1210008A121000881
:10012000A1210008A1210008A1210008A1210008A7
:10013000A12100080000000000000000A12100082B
:10014000A1210008A121000800000000000000001B
:10015000000000000000000000000000000000009F
:10016000000000000000000000000000A1210008C5
:10017000A1210008000000000000000000000000B5
:1001800000000000A12100080000000000000000A5
:10019000000000000000000000000000000000005F
:1001A0000000000000000000A1210008A1210008BB
:1001B000A1210008A1210008A121000800000000E1
:1001C00000000000A1210008000000000000000065
:0801D000A1210008A121000893
:1001D80053B94AB9002908BF00281CBF4FF0FF31A6
:1001E8004FF0FF3000F00CB8ADF1080C6DE904CE0B
:1001F80002F000F8DDF804E0DDE9022304B07047FE
:10020800704700BF10B5054C237833B9044B13B1C0
:100218000448AFF300800123237010BD0C000020B8
:1002280000000000C424000808B5034B1BB10349B3
:100238000348AFF3008008BD000000001000002054
:10024800C424000810B58AB00024059406940794C5
:1002580008940994214BDA6C42F00402DA64DA6CEF
:1002680002F004020192019ADA6C42F02002DA6488
:10027800DA6C02F020020292029ADA6C42F0010271
:10028800DA64DA6C02F001020392039ADA6C42F043
:100298000202DA64DB6C03F002030493049B224637
:1002A80020214FF0904000F001FB4FF400530593DC
:1002B8004FF488130693079405A9094800F00CFA2F
:1002C80020230593012306930794089405A94FF06A
:1002D800904000F001FA0AB010BD00BF00100240C3
:1002E8000008004872B6FEE708B51548154B0360CC
:1002F8004FF4E133436000238360C36003610C2241
:100308004261836103624362836201F05AFE70B9FD
:1003180000210B4801F0CDFE58B90021084801F032
:10032800EDFE40B9064801F0A5FE30B908BDFFF75B
:10033800D9FFFFF7D7FFFFF7D5FFFFF7D3FF00BFC0
:10034800280000200080004000B589B000230493F5
:1003580005930693079301930293039312484FF072
:100368008042026043608360104AC2600361836117
:1003780001F04EFA90B94FF48053049304A90A4847
:1003880001F084FA60B900230193039301A9064898
:1003980001F018FB30B909B05DF804FBFFF7A2FFC4
:1003A800FFF7A0FFFFF79EFFB80000207FFE210A9D
:1003B80000B595B03822002106A801F0EEFE002015
:1003C8000190029003900490059000F075FA0123C3
:1003D80006934FF48033079302230D9303220E9262
:1003E80006220F925522109211931293139306A886
:1003F80000F01CFB80B90F23019303230293002311
:1004080003930493059304210DEB010000F0C6FD4E
:1004180020B915B05DF804FBFFF764FFFFF762FF32
:1004280008B500F0CBF8FFF7C3FFFFF70BFFFFF7A6
:100438005BFFFFF789FFFEE700B583B00B4B1A6E31
:1004480042F001021A661A6E02F001020092009A46
:100458009A6D42F080529A659B6D03F08053019328
:10046800019B00F0AFFA03B05DF804FB00100240F6
:1004780010B598B004460021139114911591169166
:100488001791442202A801F088FE2268174B9A426D
:1004980001D018B010BD2023029302A800F0A4FEDA
:1004A80000BB134BDA6D42F00102DA65DA6D02F037
:1004B80001020092009ADA6C42F00102DA64DB6C05
:1004C80003F001030193019B0C231393022214925E
:1004D800002215921692179313A94FF0904000F03E
:1004E800FBF8D6E7FFF7FEFEDBE700BF0080004021
:1004F800001002400368B3F1804F00D0704700B588
:1005080083B003F504339A6D42F001029A659B6D3E
:1005180003F001030193019B002211461C2000F007
:1005280081F81C2000F0B6F803B05DF804FBFEE784
:10053800FEE7FEE7FEE7FEE770477047704708B53D
:1005480000F04CF808BD000008B5024800F0F4FFC0
:1005580008BD00BFB8000020034AD2F8883043F431
:100568007003C2F88830704700ED00E0104B1B683C
:100578000BB90120704710B504464FF47A70B0FBF0
:10058800F3F30C4A1068B0FBF3F000F091F868B987
:100598000F2C01D901200AE0002221464FF0FF303C
:1005A80000F040F8044B1C60002000E0012010BD62
:1005B80004000020000000200800002010B50320DF
:1005C80000F01EF80020FFF7D1FF10B101242046EB
:1005D80010BD0446FFF730FFF9E70000034A13682F
:1005E800034909680B441360704700BF04010020E9
:1005F80004000020014B1868704700BF0401002068
:10060800074AD36823F4E0631B041B0C000200F4C0
:10061800E060034343F0BF6343F40033D3607047A3
:1006280000ED00E000B5194BDB68C3F30223C3F10A
:10063800070CBCF1040F28BF4FF0040C03F1040EA3
:10064800BEF1060F18D9033B4FF0FF3E0EFA0CFC23
:1006580021EA0C0199400EFA03FE22EA0E020A432F
:1006680000280BDB1201D2B200F1604000F56140B6
:1006780080F800235DF804FB0023E5E700F00F0095
:100688001201D2B2024B1A54F4E700BF00ED00E0A9
:1006980014ED00E0002807DB00F01F0240090123E9
:1006A8009340024A42F82030704700BF00E100E062
:1006B8000138B0F1807F0BD24FF0E0235861054A32
:1006C800F02182F823100020986107221A617047F0
:1006D8000120704700ED00E0F0B583B0002362E030
:1006E80085685E000324B44025EA0405CC68B4405C
:1006F8002C438460456825EA0C054C68C4F3001453
:100708009C402C4344605FE0DD08083550F82540E4
:1007180003F0070C4FEA8C0C4FF00F0E0EFA0CFE8C
:1007280024EA0E0E0C6904FA0CF444EA0E0440F8AC
:10073800254060E0052400E0002404FA0EF42C4370
:100748000CF1020C554D45F82C40554CA568D44386
:1007580025EA02064F6817F4801F01D042EA050611
:100768004F4DAE60ED6804EA05064F6817F4001FA8
:1007780001D042EA05064A4DEE606D6804EA0506B6
:100788004F6817F4003F01D042EA0506444D6E60F9
:100798002D682C404E6816F4803F01D042EA0504CB
:1007A8003F4A146001330A6832FA03F474D04FF0F8
:1007B800010C0CFA03FC1CEA0202F3D04C6804F0AA
:1007C8000304013C012C8BD94C6804F00304032C6E
:1007D8000CD0C4685D004FF0030C0CFA05FC24EA49
:1007E8000C0C8C68AC4044EA0C04C4604C6804F0FF
:1007F8000304022C88D004684FEA430E4FF0030C20
:100808000CFA0EFC24EA0C0C4C6804F0030404FAFD
:100818000EF444EA0C0404604C6814F4403FC1D060
:10082800204C256E45F001052566246E04F0010470
:100838000194019C4FEA930C0CF10205174C54F8F3
:10084800255003F0030E4FEA8E0E0F2404FA0EF41F
:1008580025EA0405B0F1904F3FF46EAF124CA04268
:1008680012D004F58064A04210D004F58064A04240
:100878000ED004F58064A0420CD004F58064A04238
:100888003FF458AF062458E7012456E7022454E7FA
:10089800032452E7042450E703B0F0BD00000140F0
:1008A8000004014000100240000400480AB18161C0
:1008B8007047816270470000002836D13E4B1B68A4
:1008C80003F4C063B3F5806F08D03B4AD2F8803098
:1008D80023F48073C2F8803000207047364AD2F87B
:1008E800803023F48073C2F88030136823F4C06327
:1008F80043F400731360314B1B68322202FB03F38D
:100908002F4AA2FB03239B0C013300E0013B2A4A38
:10091800526912F4806F01D0002BF7D1264B5B6926
:1009280013F4806F44D100207047B0F5007F08D0E1
:10093800214A136823F4C06343F4806313600020E2
:1009480070471D4B1B6803F4C063B3F5806F08D074
:10095800194AD2F8803043F48073C2F880300020FE
:100968007047154AD2F8803043F48073C2F880305B
:10097800136823F4C06343F4007313600F4B1B68C0
:10098800322202FB03F30E4AA2FB03239B0C013322
:1009980000E0013B084A526912F4806F01D0002B35
:1009A800F7D1054B5B6913F4806F03D100207047C2
:1009B80003207047032070470070004000000020AB
:1009C80083DE1B43024A936843F480439360704775
:1009D80000700040124BDA6802F00302DB68C3F3D0
:1009E80003130133032A11D00E48B0FBF3F00C4B6C
:1009F800DB68C3F3062303FB00F0094BDB68C3F392
:100A0800416301335B00B0FBF3F070470648B0FB6D
:100A1800F3F0034BDB68C3F3062303FB00F0ECE7BA
:100A2800001002400024F40000366E01002800F097
:100A3800548270B582B00446036813F0010F37D0B2
:100A4800A44A936803F00C03D26802F003020C2B4B
:100A580023D0082B23D06368B3F5803F4ED0B3F57D
:100A6800A02F51D09B4B1A6822F480321A601A6862
:100A780022F480221A606368002B52D0FFF7BAFD77
:100A88000546944B1B6813F4003F11D1FFF7B2FDE4
:100A9800401B6428F5D9032028E2032AD9D18D4BBD
:100AA8001B6813F4003F03D06368002B00F0178223
:100AB800236813F0020F5DD0864A936803F00C0395
:100AC800D26802F003020C2B3AD0042B3AD0E36828
:100AD800002B75D07F4A136843F480731360FFF7C7
:100AE80089FD05467B4B1B6813F4806F5FD1FFF7C8
:100AF80081FD401B0228F5D90320F7E1754A1368E8
:100B080043F480331360B6E703F18043A3F53C3325
:100B18001A6842F480221A601A6842F480321A6015
:100B2800A9E7FFF767FD05466A4B1B6813F4003F0A
:100B3800BED0FFF75FFD401B6428F5D90320D5E13F
:100B4800022AC2D1634B1B6813F4806F03D0E36899
:100B5800002B00F0C6815F4A536823F0FE432169E9
:100B680043EA016353605C4B1868FFF7FFFC0028F9
:100B780040F0B981236813F0080F4CD063699BB328
:100B8800544AD2F8943043F00103C2F89430FFF786
:100B980031FD05464F4BD3F8943013F0020F3AD18C
:100BA800FFF728FD401B0228F4D903209EE1494A9B
:100BB800536823F0FE43216943EA01635360D9E790
:100BC800444A136823F480731360FFF713FD054646
:100BD800404B1B6813F4806FCCD0FFF70BFD401B14
:100BE8000228F5D9032081E13A4AD2F8943023F05B
:100BF8000103C2F89430FFF7FDFC0546354BD3F8E6
:100C0800943013F0020F06D0FFF7F4FC401B0228C3
:100C1800F4D903206AE1236813F0040F00F08180FF
:100C28002C4B9B6D13F0805F36D12A4B9A6D42F0A6
:100C380080529A659B6D03F080530193019B0125B7
:100C4800264B1B6813F4807F28D0A368012B39D06A
:100C5800052B45D01F4BD3F8902022F00102C3F892
:100C68009020D3F8902022F00402C3F89020A368C3
:100C7800002B43D0FFF7BEFC0646164BD3F8903046
:100C880013F0020F4CD1FFF7B5FC801B41F28833FB
:100C98009842F2D9032029E10025D1E70F4A1368C9
:100CA80043F480731360FFF7A5FC06460B4B1B68E3
:100CB80013F4807FC9D1FFF79DFC801B0228F5D96A
:100CC800032013E1034AD2F8903043F00103C2F83D
:100CD8009030CCE70010024008000020007000406F
:100CE8008A4BD3F8902042F00402C3F89020D3F83E
:100CF800902042F00102C3F89020B8E7FFF77AFC91
:100D08000646824BD3F8903013F0020F08D0FFF755
:100D180071FC801B41F288339842F2D90320E5E048
:100D2800E5B9236813F0200F35D0A369E3B1774AFA
:100D3800D2F8983043F00103C2F89830FFF75AFC14
:100D48000546724BD3F8983013F0020F23D1FFF702
:100D580051FC401B0228F4D90320C7E06B4A936D6D
:100D680023F080539365DCE7684AD2F8983023F083
:100D78000103C2F89830FFF73DFC0546634BD3F8F2
:100D8800983013F0020F06D0FFF734FC401B0228FE
:100D9800F4D90320AAE0E369002B00F0A6805B4A9F
:100DA800926802F00C020C2A69D0022B1DD0574B16
:100DB8001A6822F080721A60DA6822F00302DA6098
:100DC800DA6822F0887222F48032DA60FFF712FCC7
:100DD80004464E4B1B6813F0007F4ED0FFF70AFC09
:100DE800001B0228F5D9032080E0484A136823F045
:100DF80080731360FFF7FEFB0546444B1B6813F036
:100E0800007F06D0FFF7F6FB401B0228F5D9032028
:100E18006CE03E4AD3683E491940236A606A01384B
:100E280043EA0013A06A43EA0023206B4008013814
:100E380043EA4053606B4008013843EA4063E06A84
:100E480043EAC0631943D160136843F080731360A9
:100E5800D36843F08073D360FFF7CCFB04462B4B79
:100E68001B6813F0007F06D1FFF7C4FB001B0228A4
:100E7800F5D903203AE0002038E0002036E0012BC5
:100E880036D0224BDB6803F00301226A914231D14C
:100E980003F0F002616A0139B2EB011F2CD103F4AF
:100EA800FE42A16AB2EB012F28D103F07842E16A31
:100EB800B2EBC16F24D103F4C001226B5208013A8E
:100EC800B1EB425F1ED103F0C063626B5208013A76
:100ED800B3EB426F18D1002008E0012070470120D1
:100EE80004E0012002E0012000E0002002B070BD13
:100EF8000120FBE70120F9E70120F7E70120F5E7EA
:100F08000120F3E70120F1E70120EFE7001002409C
:100F18000C809F011E4B9B6803F00C03042B33D0FD
:100F28001B4B9B6803F00C03082B2FD0184B9B68B6
:100F380003F00C030C2B01D000207047144BDA6827
:100F480002F00302DB68C3F303130133032A11D051
:100F58001048B0FBF3F00E4BDB68C3F3062303FB2A
:100F680000F00B4BDB68C3F3416301335B00B0FB5C
:100F7800F3F070470848B0FBF3F0054BDB68C3F3A8
:100F8800062303FB00F0ECE702487047024870476D
:100F9800001002400024F40000366E01002800F022
:100FA800E680F8B50C460546744B1B6803F00F0342
:100FB8008B420BD2714A136823F00F030B43136063
:100FC800136803F00F038B4240F0D3802E6816F0AD
:100FD80001065FD06B68032B2FD0022B4DD0684BD6
:100FE8001B6813F4806F00F0C680FFF793FF654B12
:100FF80098424DD9624A936823F0F00343F0800386
:10100800936080265E4A936823F0030369680B4364
:101018009360FFF7EFFA0746594B9B6803F00C0300
:101028006A68B3EB820F35D0FFF7E4FAC01B41F2D0
:1010380088339842F0D9032078E0514B1B6813F0AD
:10104800007F01D1012071E0FFF7C4FC4D4B9842AD
:101058001AD94B4B9B6813F0F00F05D02E6816F089
:101068000206CFD0AB688BB9454A936823F0F003EA
:1010780043F0800393608026C4E7414B1B6813F458
:10108800003FB2D1012051E00026BBE70026B9E7B6
:101098000026B7E72B6813F0020F48D013F0040FAF
:1010A80004D0374A936843F4E06393602B6813F0E5
:1010B800080F06D0324A936823F47C5343F4E06364
:1010C80093602F4A936823F0F003A9680B43936059
:1010D8002A4B1B6803F00F03A34230D82B6813F088
:1010E800040F06D0264A936823F4E063E9680B43AB
:1010F80093602B6813F0080F07D0214A936823F4F4
:101108006053296943EAC1039360FFF703FF1C4B4F
:101118009B68C3F303131C4AD35C03F01F03D84036
:101128001A4B18601A4B1868FFF720FAF8BD802E82
:10113800CED1134A936823F0F0039360C8E70F4AAF
:10114800136823F00F0323431360FFF753FA06468F
:101158000A4B1B6803F00F03A342BFD0FFF74AFAFC
:10116800801B41F288339842F2D90320DEE7012040
:1011780070470120DAE70120D8E700BF00200240CD
:101188000010024000B4C404DC2400080000002061
:1011980008000020014B1868704700BF00000020BD
:1011A80008B5FFF7F7FF054B9B68C3F30223044A12
:1011B800D35C03F01F03D84008BD00BF00100240F5
:1011C800EC24000808B5FFF7E5FF054B9B68C3F35F
:1011D800C223044AD35C03F01F03D84008BD00BFF4
:1011E80000100240EC240008F0B583B00446036800
:1011F80013F4002F69D0AE4B9B6D13F0805F1ED1A6
:10120800AB4B9A6D42F080529A659B6D03F0805308
:101218000193019B0126A74A136843F48073136066
:10122800FFF7E8F90546A34B1B6813F4807F08D144
:10123800FFF7E0F9401B0228F5D9032502E0002654
:10124800E9E7002545BB9A4BD3F8903013F4407377
:1012580015D0226C9A4212D0954AD2F8903023F4D5
:101268004073D2F8901041F48031C2F89010D2F84F
:10127800901021F48031C2F89010C2F8903013F029
:10128800010F10D145B98A4AD2F8903023F440733F
:10129800216C0B43C2F89030C6B1854A936D23F098
:1012A8008053936512E0FFF7A5F90746804BD3F802
:1012B800903013F0020FE5D1FFF79CF9C01B41F203
:1012C80088339842F2D90325DCE70025236813F018
:1012D800010F08D0764AD2F8883023F003036168FA
:1012E8000B43C2F88830236813F0020F08D0704A05
:1012F800D2F8883023F00C03A1680B43C2F8883079
:10130800236813F0040F08D0694AD2F8883023F014
:101318003003E1680B43C2F88830236813F0080FE4
:1013280008D0634AD2F8883023F0C00321690B4300
:10133800C2F88830236813F0200F08D05C4AD2F82E
:10134800883023F4406361690B43C2F8883023680E
:1013580013F0400F08D0564AD2F8883023F440538F
:10136800A1690B43C2F88830236813F0800F08D0B6
:101378004F4AD2F8883023F44043E1690B43C2F85E
:101388008830236813F4807F08D0494AD2F888301F
:1013980023F44033216A0B43C2F88830236813F4DE
:1013A800007F08D0424AD2F8883023F44023616A8B
:1013B8000B43C2F88830236813F4806F0CD03C4A82
:1013C800D2F8883023F44013A16A0B43C2F888305E
:1013D800A36AB3F5801F57D0236813F4006F0CD0AD
:1013E800334AD2F8883023F44003E16A0B43C2F849
:1013F8008830E36AB3F5800F4BD0236813F4805F1D
:101408000CD02B4AD2F8883023F04073216B0B4361
:10141800C2F88830236BB3F1807F3FD0236813F480
:10142800005F0CD0224AD2F8883023F04063616B09
:101438000B43C2F88830636BB3F1006F33D0236875
:1014480013F4804F0CD01A4AD2F8883023F0406346
:10145800A16B0B43C2F88830A36BB3F1006F2BD09C
:10146800236813F4004F0CD0114AD2F8883023F0C7
:101478004053E16B0B43C2F88830E36BB3F1805FF4
:101488001FD0284603B0F0BDD36843F48013D3605F
:10149800A2E7D36843F48013D360AEE7D36843F47C
:1014A8008013D360BAE7D36843F48013D360C6E7E8
:1014B8000010024000700040D36843F48013D360EA
:1014C800CEE7D36843F48033D360DAE710B4036A15
:1014D800046A24F001040462846924F0F00C4CEAE4
:1014E800021223F00A030B43826103625DF8044B86
:1014F800704710B4036A23F0100303628469036A17
:1015080024F4704C4CEA023223F0A00343EA01139E
:10151800826103625DF8044B7047836823F44013CB
:1015280023F070030B4343F0070383607047704751
:10153800704770477047704710B5044603681A69CA
:1015480012F0020F12D0DA6812F0020F0ED06FF00C
:1015580002021A610123037703689B6913F0030FE2
:1015680000F09F80FFF7E5FF0023237723681A69BF
:1015780012F0040F13D0DA6812F0040F0FD06FF0D6
:1015880004021A610223237723689B6913F4407FBE
:1015980000F08D802046FFF7CCFF002323772368D7
:1015A8001A6912F0080F12D0DA6812F0080F0ED07C
:1015B8006FF008021A61042323772368DB6913F0AC
:1015C800030F7BD02046FFF7B4FF0023237723685F
:1015D8001A6912F0100F12D0DA6812F0100F0ED03C
:1015E8006FF010021A61082323772368DB6913F46C
:1015F800407F6AD02046FFF79CFF002323772368AB
:101608001A6912F0010F03D0DA6812F0010F63D1E2
:1016180023681A6912F0800F03D0DA6812F0800F7D
:1016280061D123681A6912F4807F03D0DA6812F056
:10163800800F5FD123681A6912F0400F03D0DA686F
:1016480012F0400F5DD123681A6912F0200F03D001
:10165800DA6812F0200F5BD123681A6912F4801F30
:1016680003D0DA6812F4801F59D123681A6912F47A
:10167800001F03D0DA6812F4001F57D123681A69D3
:1016880012F4800F03D0DA6812F4800F55D1236862
:101698001A6912F4000F03D0DA6812F4000F53D15C
:1016A80010BDFFF745FF2046FFF744FF5CE72046E3
:1016B800FFF73EFF2046FFF73DFF6EE72046FFF7A6
:1016C80037FF2046FFF736FF7FE72046FFF730FF5A
:1016D8002046FFF72FFF90E76FF001021A612046BE
:1016E800FFF725FF94E76FF080021A61204600F0AB
:1016F800B4F996E76FF480721A61204600F0AEF9EB
:1017080098E76FF040021A612046FFF714FF9AE746
:101718006FF020021A61204600F09EF99CE76FF4F2
:1017280080121A61204600F09AF99EE76FF40012C1
:101738001A61204600F094F9A0E76FF480021A615C
:10174800204600F08EF9A2E76FF400021A612046E5
:1017580000F088F9A4E7000003682C4A90420ED0F4
:10176800B0F1804F0BD0A2F59432904207D002F529
:101778008062904203D002F59632904203D123F062
:1017880070034A681343214A90421AD0B0F1804F3F
:1017980017D0A2F59432904213D002F5806290429D
:1017A8000FD002F5963290420BD002F5406290427B
:1017B80007D002F58062904203D002F58062904221
:1017C80003D123F44073CA68134323F080034A69A2
:1017D800134303608B68C3620B6883620B4B9842A8
:1017E8000FD003F5006398420BD003F5406398428D
:1017F80007D003F58063984203D003F580639842CD
:1018080001D10B690363012343617047002C014038
:1018180060B310B5044690F83D3013B3022384F842
:101828003D30214651F8040BFFF796FF012384F859
:10183800483084F83E3084F83F3084F8403084F8EB
:10184800413084F8423084F8433084F8443084F8D6
:10185800453084F8463084F8473084F83D3000201D
:1018680010BD80F83C30FEF745FED7E701207047F1
:1018780010B4846824F47F4C42EA03220A4342EA03
:101888000C0282605DF8044B7047000090F83C3011
:10189800012B00F08F8010B50446012380F83C30FE
:1018A800022380F83D3002689068434B0340936000
:1018B8000B68702B55D031D8502B6CD00CD9602BBD
:1018C8002AD1CA6849682068FFF713FE602120689A
:1018D800FFF723FE002035E0402B0AD1CA6849688B
:1018E8002068FFF7F3FD40212068FFF716FE00206F
:1018F80028E05BD8202B07D003D9302B04D0012057
:1019080020E00BB1102B05D119462068FFF705FE22
:10191800002017E0012015E0012013E0B3F5005F77
:101928002CD00BD9254A9342EED012D9244A93429F
:10193800EAD030329342E7D0012003E0B3F5805F6C
:1019480036D10020012384F83D30002384F83C3050
:1019580010BDB3F1101FD7D0103A9342D4D0012054
:10196800F0E7CB684A6889682068FFF781FF22683A
:10197800936843F0770393600020E3E7CB684A68F5
:1019880089682068FFF774FF2268936843F48043EE
:1019980093600020D6E7CA6849682068FFF796FD7B
:1019A80050212068FFF7B9FD0020CBE70120C9E7E7
:1019B8000120C7E7022070478800CEFF30001000E2
:1019C8004000100090F83C20012A40D030B4034673
:1019D800012280F83C20022280F83D2000684268FD
:1019E80084681C4DA84203D005F50065A84203D1C0
:1019F80022F470024D682A4322F0007222F070022D
:101A08000D682A4342601A681248824212D0B2F125
:101A1800804F0FD0A0F5943082420BD000F5806043
:101A2800824207D000F59630824203D000F540602C
:101A3800824204D124F08004896821439160012204
:101A480083F83D20002083F83C0030BC704702201A
:101A5800704700BF002C01407047704770477047BF
:101A6800704770477047000070B504460168836886
:101A78000269134342691343C269134308688B4AD6
:101A880002401A430A602268536823F44053E1680D
:101A98000B435360A1692268854B9A4201D0236A9F
:101AA8001943936823F06E4323F430630B43936028
:101AB8002268D36A23F00F03616A0B43D362236859
:101AC8007C4A934223D07C4A934234D07B4A934247
:101AD8004AD07B4A934259D0754A934268D0102223
:101AE80073498B4200F09580E069B0F5004F00F033
:101AF800D280082A00F24F81DFE812F01201340187
:101B080010014D0137014D014D014D013A0102F51A
:101B18005842D2F8882002F00302032A09D8DFE8E5
:101B280002F002045C060122DAE70422D8E7082260
:101B3800D6E71022D4E702F5E632D2F8882002F080
:101B48000C020C2A0ED8DFE802F0070D0D0D090D66
:101B58000D0D4A0D0D0D0B000022C1E70422BFE751
:101B68000822BDE71022BBE702F5E432D2F888204C
:101B780002F03002202A34D004D8A2B3102A34D17B
:101B88000422ADE7302A32D10822A9E702F5E23271
:101B9800D2F8882002F0C002802A2AD004D852B392
:101BA800402A2AD104229BE7C02A28D1082297E795
:101BB80002F5C832D2F8882002F44062B2F5006F0C
:101BC8001FD005D8FAB1B2F5806F1ED1042287E77D
:101BD800B2F5406F1BD1082282E7022280E7022279
:101BE8007EE702227CE700227AE7102278E71022BB
:101BF80076E7022274E7002272E7102270E71022CB
:101C08006EE702226CE700226AE7102268E71022DA
:101C180066E7082A00F2AF80DFE802F008AD3BADC6
:101C280038ADADAD05004FF4004004E0FFF7B8FA59
:101C3800002800F0A280626A224B33F81220B0FB21
:101C4800F2F3656805EB4501994200F29880B3EB21
:101C5800053F00F29680002633463146FEF7B8FA73
:101C6800090241EA106100026B08C0182A4633468F
:101C780041F10001FEF7ACFAA0F54072124B9A420E
:101C880000F281802368D860304662E0FFF742F9AD
:101C9800CEE70E48CFE7082A77D8DFE802F01939EF
:101CA80005763C7676761D00084815E0F369FFCF87
:101CB80000800040003801400044004000480040D7
:101CC800004C0040F4240008FFFC0F000024F4003E
:101CD800FFF766FA00285AD0626A324B33F812309E
:101CE800B0FBF3F06268530803EB4003B3FBF2F375
:101CF800A3F110014FF6EF7291424AD89AB222F03E
:101D08000F02C3F3420313432268D360002020E08C
:101D1800FFF758FADEE7FFF7FDF8DBE7224803E0B4
:101D2800FFF73EFA002838D0626A1E4B33F81230AB
:101D3800B0FBF3F0636800EB5300B0FBF3F0A0F1E5
:101D480010024FF6EF739A4229D8236880B2D86000
:101D580000200123A4F86A30A4F868300023236720
:101D6800636770BDFFF72EFADCE7FFF7D3F8D9E712
:101D78004FF40040D8E70120EBE70020E9E7012015
:101D8800E7E70120E5E70120E3E70120E1E700209C
:101D9800DFE70120DDE70120DBE70020D9E70120AC
:101DA800D7E700BFF42400080024F400836A13F086
:101DB800010F06D00268536823F40033C16A0B434D
:101DC8005360836A13F0020F06D00268536823F445
:101DD8008033016B0B435360836A13F0040F06D002
:101DE8000268536823F48023416B0B435360836A72
:101DF80013F0080F06D00268536823F40043816B80
:101E08000B435360836A13F0100F06D0026893687F
:101E180023F48053C16B0B439360836A13F0200F44
:101E280006D00268936823F40053016C0B43936057
:101E3800836A13F0400F0AD00268536823F48013B2
:101E4800416C0B435360436CB3F5801F0BD0836A1E
:101E580013F0800F06D00268536823F40023C16C86
:101E68000B43536070470268536823F4C003816CC6
:101E78000B435360EBE72DE9F84305460F4616463A
:101E88009946DDF820802B68DC6937EA04040CBF2A
:101E980001240024B44257D1B8F1FF3FF3D0FEF734
:101EA800A9FBA0EB090040452FD8B8F1000F2CD0B2
:101EB8002B681A6812F0040FE5D0DA6912F4006F83
:101EC800E1D04FF400621A622A6852E8003F23F416
:101ED800D07342E800310029F6D12A6802F10803DC
:101EE80053E8003F23F00103083242E8003100299B
:101EF800F3D12023C5F88430C5F88830C5F88C3074
:101F0800002385F8803003201FE02A6852E8003F4C
:101F180023F4D07342E800310029F6D12A6802F18F
:101F2800080353E8003F23F00103083242E8003178
:101F38000029F3D12023C5F88430C5F88830002360
:101F480085F88030032000E00020BDE8F88330B534
:101F580083B004460023C0F88C30FEF74BFB0546DF
:101F68002268126812F0080F0FD123681B6813F05B
:101F7800040F18D12023C4F88430C4F88830002016
:101F8800E06684F8800003B030BD6FF07E430093B4
:101F9800034600224FF400112046FFF76CFF00288B
:101FA800E3D00320EFE76FF07E4300932B46002237
:101FB8004FF480012046FFF75EFF0028DAD00320A7
:101FC800E1E778B310B50446D0F884300BB3242386
:101FD800C4F884302268136823F001031360204694
:101FE800FFF742FD012813D0A36ABBB922685368E2
:101FF80023F4904353602268936823F02A03936084
:102008002268136843F0010313602046FFF79FFF1F
:1020180010BD80F88030FEF72BFAD8E72046FFF78E
:10202800C5FEE3E701207047436E2BB90123A0F8F2
:102038006A30A0F86830704730B403689A68C2F311
:1020480042629968490F094D6B5CDB00084C615C82
:1020580093FBF1F3A0F86A30AB5CDB00A25C93FB66
:10206800F2F3A0F8683030BC704700BF14250008B0
:102078000C25000890F88030012B18D0012380F837
:1020880080302423C0F8843003681A68196821F066
:102098000101196022F000520023436601680A60BA
:1020A8002022C0F8842080F880301846704702202B
:1020B800704738B590F88030012B1DD004460123B5
:1020C80080F880302423C0F8843003681D681A68BB
:1020D80022F001021A600268936823F060431943F2
:1020E8009160FFF7A1FF23681D602023C4F88430A6
:1020F800002084F8800038BD0220FCE738B590F84D
:102108008030012B1DD00446012380F88030242321
:10211800C0F8843003681D681A6822F001021A604A
:102128000268936823F0606319439160FFF77CFFAE
:1021380023681D602023C4F88430002084F88000C0
:1021480038BD0220FCE700000D4885460D480E49C1
:102158000E4A002302E0D458C4500433C4188C42F9
:10216800F9D30B4A0B4C002301E013600432A2425E
:10217800FBD3FEF7F1F900F019F8FEF751F9FEE785
:1021880000800020000000200C0000202C25000802
:102198000C00002008010020FEE702440346934299
:1021A80000D1704703F8011BF9E7000070B50D4D29
:1021B8000D4C641BA4100026A64209D10B4D0C4CF3
:1021C80000F07CF9641BA4100026A64205D170BD5E
:1021D80055F8043B98470136EEE755F8043B984715
:1021E8000136F2E7242500082425000824250008E4
:1021F800282500082DE9F047089E0D4604460F469D
:10220800002B4AD18A42944665D9B2FA82F343B187
:1022180002FA03FCC3F120029F4020FA02F217439E
:102228009C404FEA1C4E1FFA8CF5B7FBFEF1220CBE
:102238000EFB117742EA074201FB05F090420AD9EA
:102248001CEB020201F1FF3780F01C81904240F242
:10225800198102396244121AA4B2B2FBFEF00EFBD5
:10226800102244EA024400FB05F5A5420AD91CEBFA
:10227800040400F1FF3280F00781A54240F2048196
:102288006444023840EA0140641B00211EB1DC406E
:102298000023C6E90043BDE8F0878B4208D9002E29
:1022A80000F0ED800021C6E900050846BDE8F0878A
:1022B800B3FA83F1002949D1AB4202D3824200F23A
:1022C800F880841A65EB030201201746002EE2D03D
:1022D800C6E90047DFE702B9FFDEB2FA82F3002B56
:1022E80040F090808A1A4FEA1C471FFA8CFE0121A1
:1022F800B2FBF7F507FB1520220C42EA00420EFB61
:1023080005F0904208D91CEB020205F1FF3802D211
:10231800904200F2CB804546121AA4B2B2FBF7F005
:1023280007FB102244EA02440EFB00FEA64508D92A
:102338001CEB040400F1FF3202D2A64500F2BB8078
:102348001046A4EB0E0440EA05409FE7C1F12007C0
:102358008B4022FA07FC4CEA030C05FA01F420FA38
:1023680007F3FD404FEA1C492343B5FBF9F81FFA70
:102378008CFE09FB18551C0C44EA054408FB0EF5B5
:10238800A54202FA01F200FA01F00BD91CEB040491
:1023980008F1FF3A80F08880A54240F28580A8F1D4
:1023A80002086444641B9DB2B4FBF9F309FB1344AF
:1023B80045EA044403FB0EFEA64508D91CEB0404B9
:1023C80003F1FF356CD2A6456AD9023B644443EA5F
:1023D8000843A3FB0295A4EB0E04AC42C846AE46E4
:1023E80056D353D056B1B0EB080264EB0E0404FA8E
:1023F80007F7CA40CC401743C6E9007418460021C5
:10240800BDE8F087C3F1200102FA03FC20FA01F2CB
:1024180025FA01F19D402A434FEA1C471FFA8CFE1A
:10242800B1FBF7F007FB1015110C41EA054100FB61
:102438000EF58D4204FA03F408D91CEB010100F1F2
:10244800FF382FD28D422DD902386144491B92B2F0
:10245800B1FBF7F507FB151142EA014205FB0EF146
:10246800914208D91CEB020205F1FF3816D29142BD
:1024780014D9023D6244521A45EA004138E7314610
:10248800304608E73946E6E61046FBE64845A9D255
:10249800B9EB020865EB0C0E013BA3E74546EAE7FA
:1024A8002B4694E74046D1E7D0467BE7023D62449D
:1024B80032E708460AE76444023842E7F8B500BF45
:1024C800F8BC08BC9E467047F8B500BFF8BC08BC0D
:0424D8009E46704765
:1024DC0000000000000000000102030406070809C8
:1024EC0000000000010203040100020004000600C9
:1024FC0008000A000C0010002000400080000001C1
:10250C000804020408010101010101030701000094
:08251C00E0FCFF7F010000005C
:042524003102000878
:042528000D02000898
:0C252C000024F40001000000100000007A
:04000005080021517D
:00000001FF
